:040000001BC0FECF54
:10000400FDCFFCCFFBCFFACFF9CFF8CFF7CFF6CFA8
:10001400F5CFF4CFF3CFF2CFF1CFF0CFEFCFEECFD8
:10002400EDCF1027E80364000A000100001000016E
:1000340010000100F894EE27ECBBF1E0FBBFEBBF2E
:10004400E5BFF8E1F1BDE1BD8DE0A2E0BB27ED9392
:100054008A95E9F780E094E0A0E6ED930197E9F74B
:10006400EFE5EDBFE4E0EEBFC0E6D1E00DC0E8810E
:10007400E066E7B98BE18A95F1F7369A349BFECFB7
:10008400349AE5B121960895EFEFE7BBE0E0E4BBD5
:10009400E2BDECE6E5BDE0E0E4BDE3BDE0E6E7B9E2
:1000A400E7E8E6B9E0E0EA93E2DFE3BDFBCFFFCFA8
:00000001FF
